{
  "_format": "hh-sol-artifact-1",
  "contractName": "MyERC721Token",
  "sourceName": "contracts/MyERC721Token.sol",
  "abi": [
    {
      "inputs": [],
      "stateMutability": "nonpayable",
      "type": "constructor"
    },
    {
      "inputs": [
        {
          "internalType": "address",
          "name": "sender",
          "type": "address"
        },
        {
          "internalType": "uint256",
          "name": "tokenId",
          "type": "uint256"
        },
        {
          "internalType": "address",
          "name": "owner",
          "type": "address"
        }
      ],
      "name": "ERC721IncorrectOwner",
      "type": "error"
    },
    {
      "inputs": [
        {
          "internalType": "address",
          "name": "operator",
          "type": "address"
        },
        {
          "internalType": "uint256",
          "name": "tokenId",
          "type": "uint256"
        }
      ],
      "name": "ERC721InsufficientApproval",
      "type": "error"
    },
    {
      "inputs": [
        {
          "internalType": "address",
          "name": "approver",
          "type": "address"
        }
      ],
      "name": "ERC721InvalidApprover",
      "type": "error"
    },
    {
      "inputs": [
        {
          "internalType": "address",
          "name": "operator",
          "type": "address"
        }
      ],
      "name": "ERC721InvalidOperator",
      "type": "error"
    },
    {
      "inputs": [
        {
          "internalType": "address",
          "name": "owner",
          "type": "address"
        }
      ],
      "name": "ERC721InvalidOwner",
      "type": "error"
    },
    {
      "inputs": [
        {
          "internalType": "address",
          "name": "receiver",
          "type": "address"
        }
      ],
      "name": "ERC721InvalidReceiver",
      "type": "error"
    },
    {
      "inputs": [
        {
          "internalType": "address",
          "name": "sender",
          "type": "address"
        }
      ],
      "name": "ERC721InvalidSender",
      "type": "error"
    },
    {
      "inputs": [
        {
          "internalType": "uint256",
          "name": "tokenId",
          "type": "uint256"
        }
      ],
      "name": "ERC721NonexistentToken",
      "type": "error"
    },
    {
      "anonymous": false,
      "inputs": [
        {
          "indexed": true,
          "internalType": "address",
          "name": "_owner",
          "type": "address"
        },
        {
          "indexed": true,
          "internalType": "address",
          "name": "_approved",
          "type": "address"
        },
        {
          "indexed": true,
          "internalType": "uint256",
          "name": "_tokenId",
          "type": "uint256"
        }
      ],
      "name": "Approval",
      "type": "event"
    },
    {
      "anonymous": false,
      "inputs": [
        {
          "indexed": true,
          "internalType": "address",
          "name": "_owner",
          "type": "address"
        },
        {
          "indexed": true,
          "internalType": "address",
          "name": "_operator",
          "type": "address"
        },
        {
          "indexed": false,
          "internalType": "bool",
          "name": "_approved",
          "type": "bool"
        }
      ],
      "name": "ApprovalForAll",
      "type": "event"
    },
    {
      "anonymous": false,
      "inputs": [
        {
          "indexed": true,
          "internalType": "address",
          "name": "_from",
          "type": "address"
        },
        {
          "indexed": true,
          "internalType": "address",
          "name": "_to",
          "type": "address"
        },
        {
          "indexed": true,
          "internalType": "uint256",
          "name": "_tokenId",
          "type": "uint256"
        }
      ],
      "name": "Transfer",
      "type": "event"
    },
    {
      "inputs": [
        {
          "internalType": "address",
          "name": "approved",
          "type": "address"
        },
        {
          "internalType": "uint256",
          "name": "tokenId",
          "type": "uint256"
        }
      ],
      "name": "approve",
      "outputs": [],
      "stateMutability": "nonpayable",
      "type": "function"
    },
    {
      "inputs": [
        {
          "internalType": "address",
          "name": "owner",
          "type": "address"
        }
      ],
      "name": "balanceOf",
      "outputs": [
        {
          "internalType": "uint256",
          "name": "",
          "type": "uint256"
        }
      ],
      "stateMutability": "view",
      "type": "function"
    },
    {
      "inputs": [
        {
          "internalType": "uint256",
          "name": "tokenId",
          "type": "uint256"
        }
      ],
      "name": "getApproved",
      "outputs": [
        {
          "internalType": "address",
          "name": "",
          "type": "address"
        }
      ],
      "stateMutability": "view",
      "type": "function"
    },
    {
      "inputs": [
        {
          "internalType": "address",
          "name": "owner",
          "type": "address"
        },
        {
          "internalType": "address",
          "name": "operator",
          "type": "address"
        }
      ],
      "name": "isApprovedForAll",
      "outputs": [
        {
          "internalType": "bool",
          "name": "",
          "type": "bool"
        }
      ],
      "stateMutability": "view",
      "type": "function"
    },
    {
      "inputs": [],
      "name": "name",
      "outputs": [
        {
          "internalType": "string",
          "name": "",
          "type": "string"
        }
      ],
      "stateMutability": "pure",
      "type": "function"
    },
    {
      "inputs": [
        {
          "internalType": "uint256",
          "name": "tokenId",
          "type": "uint256"
        }
      ],
      "name": "ownerOf",
      "outputs": [
        {
          "internalType": "address",
          "name": "",
          "type": "address"
        }
      ],
      "stateMutability": "view",
      "type": "function"
    },
    {
      "inputs": [
        {
          "internalType": "address",
          "name": "to",
          "type": "address"
        },
        {
          "internalType": "string",
          "name": "uri",
          "type": "string"
        }
      ],
      "name": "safeMint",
      "outputs": [],
      "stateMutability": "nonpayable",
      "type": "function"
    },
    {
      "inputs": [
        {
          "internalType": "address",
          "name": "from",
          "type": "address"
        },
        {
          "internalType": "address",
          "name": "to",
          "type": "address"
        },
        {
          "internalType": "uint256",
          "name": "tokenId",
          "type": "uint256"
        }
      ],
      "name": "safeTransferFrom",
      "outputs": [],
      "stateMutability": "nonpayable",
      "type": "function"
    },
    {
      "inputs": [
        {
          "internalType": "address",
          "name": "from",
          "type": "address"
        },
        {
          "internalType": "address",
          "name": "to",
          "type": "address"
        },
        {
          "internalType": "uint256",
          "name": "tokenId",
          "type": "uint256"
        },
        {
          "internalType": "bytes",
          "name": "data",
          "type": "bytes"
        }
      ],
      "name": "safeTransferFrom",
      "outputs": [],
      "stateMutability": "nonpayable",
      "type": "function"
    },
    {
      "inputs": [
        {
          "internalType": "address",
          "name": "operator",
          "type": "address"
        },
        {
          "internalType": "bool",
          "name": "approved",
          "type": "bool"
        }
      ],
      "name": "setApprovalForAll",
      "outputs": [],
      "stateMutability": "nonpayable",
      "type": "function"
    },
    {
      "inputs": [],
      "name": "symbol",
      "outputs": [
        {
          "internalType": "string",
          "name": "",
          "type": "string"
        }
      ],
      "stateMutability": "pure",
      "type": "function"
    },
    {
      "inputs": [
        {
          "internalType": "uint256",
          "name": "tokenId",
          "type": "uint256"
        }
      ],
      "name": "tokenURI",
      "outputs": [
        {
          "internalType": "string",
          "name": "",
          "type": "string"
        }
      ],
      "stateMutability": "view",
      "type": "function"
    },
    {
      "inputs": [
        {
          "internalType": "address",
          "name": "from",
          "type": "address"
        },
        {
          "internalType": "address",
          "name": "to",
          "type": "address"
        },
        {
          "internalType": "uint256",
          "name": "tokenId",
          "type": "uint256"
        }
      ],
      "name": "transferFrom",
      "outputs": [],
      "stateMutability": "nonpayable",
      "type": "function"
    }
  ],
  "bytecode": "0x60806040526001600655348015601457600080fd5b50600080546001600160a01b03191633179055610ff6806100366000396000f3fe608060405234801561001057600080fd5b50600436106100df5760003560e01c806370a082311161008c578063b88d4fde11610066578063b88d4fde1461022b578063c87b56dd1461023e578063d204c45e14610251578063e985e9c51461026457600080fd5b806370a08231146101be57806395d89b41146101df578063a22cb4651461021857600080fd5b806323b872dd116100bd57806323b872dd1461018557806342842e0e146101985780636352211e146101ab57600080fd5b806306fdde03146100e4578063081812fc1461012f578063095ea7b314610170575b600080fd5b60408051808201909152601d81527f5461736b2032204578616d6c65204f662045524337323120546f6b656e00000060208201525b6040516101269190610b28565b60405180910390f35b61015861013d366004610b42565b6000908152600160205260409020546001600160a01b031690565b6040516001600160a01b039091168152602001610126565b61018361017e366004610b77565b6102b0565b005b610183610193366004610ba1565b6102c1565b6101836101a6366004610ba1565b610379565b6101586101b9366004610b42565b610399565b6101d16101cc366004610bde565b6103f1565b604051908152602001610126565b60408051808201909152600981527f5432454f453732315400000000000000000000000000000000000000000000006020820152610119565b610183610226366004610bf9565b610452565b610183610239366004610cc5565b61050b565b61011961024c366004610b42565b610523565b61018361025f366004610d41565b6105c5565b6102a0610272366004610da3565b6001600160a01b03918216600090815260046020908152604080832093909416825291909152205460ff1690565b6040519015158152602001610126565b6102bd828233600161068f565b5050565b6000818152600160205260409020546001600160a01b0390811690831661030357604051633250574960e11b8152600060048201526024015b60405180910390fd5b836001600160a01b0316816001600160a01b031614610368576040517f64283d7b0000000000000000000000000000000000000000000000000000000081526001600160a01b03808616600483015260248201849052821660448201526064016102fa565b6103738383336107e0565b50505050565b6103948383836040518060200160405280600081525061050b565b505050565b6000818152600160205260408120546001600160a01b0316806103eb576040517f7e273289000000000000000000000000000000000000000000000000000000008152600481018490526024016102fa565b92915050565b60006001600160a01b038216610436576040517f89c62b64000000000000000000000000000000000000000000000000000000008152600060048201526024016102fa565b506001600160a01b031660009081526002602052604090205490565b336001600160a01b03831661049e576040517f5b08ba180000000000000000000000000000000000000000000000000000000081526001600160a01b03841660048201526024016102fa565b6001600160a01b03818116600081815260046020908152604080832094881680845294825291829020805460ff191687151590811790915591519182527f17307eab39ab6107e8899845ad3d59bd9653f200f220920489ca2b5937696c31910160405180910390a3505050565b6105168484846102c1565b6103733385858585610919565b600081815260056020526040902080546060919061054090610dd6565b80601f016020809104026020016040519081016040528092919081815260200182805461056c90610dd6565b80156105b95780601f1061058e576101008083540402835291602001916105b9565b820191906000526020600020905b81548152906001019060200180831161059c57829003601f168201915b50505050509050919050565b60005433906001600160a01b03168114610616576040517f73c6ac6e0000000000000000000000000000000000000000000000000000000081526001600160a01b03821660048201526024016102fa565b600042600654604051602001610636929190918252602082015260400190565b60408051601f1981840301815291815281516020928301206000818152600590935291209091506106678482610e57565b50610674848260006107e0565b6006805490600061068483610f16565b919050555050505050565b80806106a357506001600160a01b03821615155b156107a3576000838152600160205260409020546001600160a01b03908116908316158015906106e55750826001600160a01b0316816001600160a01b031614155b801561071757506001600160a01b0380821660009081526004602090815260408083209387168352929052205460ff16155b15610759576040517fa9fbf51f0000000000000000000000000000000000000000000000000000000081526001600160a01b03841660048201526024016102fa565b81156107a15783856001600160a01b0316826001600160a01b03167f8c5be1e5ebec7d5bd14f71427d1e84f3dd0314c0f7b2291e5b200ac8c7c3b92560405160405180910390a45b505b50506000908152600360205260409020805473ffffffffffffffffffffffffffffffffffffffff19166001600160a01b0392909216919091179055565b6000828152600160205260409020546001600160a01b0316801561088057610809818385610a5c565b610851576040517f177e802f0000000000000000000000000000000000000000000000000000000081526001600160a01b0382166004820152602481018490526044016102fa565b61085f60008460008061068f565b6001600160a01b038116600090815260026020526040902080546000190190555b6001600160a01b038416156108af576001600160a01b0384166000908152600260205260409020805460010190555b600083815260016020526040808220805473ffffffffffffffffffffffffffffffffffffffff19166001600160a01b0388811691821790925591518693918516917fddf252ad1be2c89b69c2b068fc378daa952ba7f163c4a11628f55a4df523b3ef91a450505050565b6001600160a01b0383163b15610a5557604051630a85bd0160e11b81526001600160a01b0384169063150b7a029061095b908890889087908790600401610f3d565b6020604051808303816000875af1925050508015610996575060408051601f3d908101601f1916820190925261099391810190610f7e565b60015b6109ff573d8080156109c4576040519150601f19603f3d011682016040523d82523d6000602084013e6109c9565b606091505b5080516000036109f757604051633250574960e11b81526001600160a01b03851660048201526024016102fa565b805181602001fd5b7fffffffff000000000000000000000000000000000000000000000000000000008116630a85bd0160e11b14610a5357604051633250574960e11b81526001600160a01b03851660048201526024016102fa565b505b5050505050565b60006001600160a01b03831615801590610ada5750826001600160a01b0316846001600160a01b03161480610ab657506001600160a01b0380851660009081526004602090815260408083209387168352929052205460ff165b80610ada57506000828152600160205260409020546001600160a01b038481169116145b949350505050565b6000815180845260005b81811015610b0857602081850181015186830182015201610aec565b506000602082860101526020601f19601f83011685010191505092915050565b602081526000610b3b6020830184610ae2565b9392505050565b600060208284031215610b5457600080fd5b5035919050565b80356001600160a01b0381168114610b7257600080fd5b919050565b60008060408385031215610b8a57600080fd5b610b9383610b5b565b946020939093013593505050565b600080600060608486031215610bb657600080fd5b610bbf84610b5b565b9250610bcd60208501610b5b565b929592945050506040919091013590565b600060208284031215610bf057600080fd5b610b3b82610b5b565b60008060408385031215610c0c57600080fd5b610c1583610b5b565b915060208301358015158114610c2a57600080fd5b809150509250929050565b634e487b7160e01b600052604160045260246000fd5b60008067ffffffffffffffff841115610c6657610c66610c35565b50604051601f19601f85018116603f0116810181811067ffffffffffffffff82111715610c9557610c95610c35565b604052838152905080828401851015610cad57600080fd5b83836020830137600060208583010152509392505050565b60008060008060808587031215610cdb57600080fd5b610ce485610b5b565b9350610cf260208601610b5b565b925060408501359150606085013567ffffffffffffffff811115610d1557600080fd5b8501601f81018713610d2657600080fd5b610d3587823560208401610c4b565b91505092959194509250565b60008060408385031215610d5457600080fd5b610d5d83610b5b565b9150602083013567ffffffffffffffff811115610d7957600080fd5b8301601f81018513610d8a57600080fd5b610d9985823560208401610c4b565b9150509250929050565b60008060408385031215610db657600080fd5b610dbf83610b5b565b9150610dcd60208401610b5b565b90509250929050565b600181811c90821680610dea57607f821691505b602082108103610e0a57634e487b7160e01b600052602260045260246000fd5b50919050565b601f82111561039457806000526020600020601f840160051c81016020851015610e375750805b601f840160051c820191505b81811015610a555760008155600101610e43565b815167ffffffffffffffff811115610e7157610e71610c35565b610e8581610e7f8454610dd6565b84610e10565b6020601f821160018114610eb95760008315610ea15750848201515b600019600385901b1c1916600184901b178455610a55565b600084815260208120601f198516915b82811015610ee95787850151825560209485019460019092019101610ec9565b5084821015610f075786840151600019600387901b60f8161c191681555b50505050600190811b01905550565b600060018201610f3657634e487b7160e01b600052601160045260246000fd5b5060010190565b6001600160a01b03851681526001600160a01b0384166020820152826040820152608060608201526000610f746080830184610ae2565b9695505050505050565b600060208284031215610f9057600080fd5b81517fffffffff0000000000000000000000000000000000000000000000000000000081168114610b3b57600080fdfea26469706673582212208b4cc990049a60d9488a98a94885ce7a57adb366c609cbbef7c64a5407b351a264736f6c634300081c0033",
  "linkReferences": {},
  "deployedLinkReferences": {}
}