{
  "contracts/MyERC721Token.sol": {
    "MyERC721Token": {
      "abi": [
        {
          "inputs": [],
          "stateMutability": "nonpayable",
          "type": "constructor"
        },
        {
          "inputs": [
            {
              "internalType": "address",
              "name": "sender",
              "type": "address"
            },
            {
              "internalType": "uint256",
              "name": "tokenId",
              "type": "uint256"
            },
            {
              "internalType": "address",
              "name": "owner",
              "type": "address"
            }
          ],
          "name": "ERC721IncorrectOwner",
          "type": "error"
        },
        {
          "inputs": [
            {
              "internalType": "address",
              "name": "operator",
              "type": "address"
            },
            {
              "internalType": "uint256",
              "name": "tokenId",
              "type": "uint256"
            }
          ],
          "name": "ERC721InsufficientApproval",
          "type": "error"
        },
        {
          "inputs": [
            {
              "internalType": "address",
              "name": "approver",
              "type": "address"
            }
          ],
          "name": "ERC721InvalidApprover",
          "type": "error"
        },
        {
          "inputs": [
            {
              "internalType": "address",
              "name": "operator",
              "type": "address"
            }
          ],
          "name": "ERC721InvalidOperator",
          "type": "error"
        },
        {
          "inputs": [
            {
              "internalType": "address",
              "name": "owner",
              "type": "address"
            }
          ],
          "name": "ERC721InvalidOwner",
          "type": "error"
        },
        {
          "inputs": [
            {
              "internalType": "address",
              "name": "receiver",
              "type": "address"
            }
          ],
          "name": "ERC721InvalidReceiver",
          "type": "error"
        },
        {
          "inputs": [
            {
              "internalType": "address",
              "name": "sender",
              "type": "address"
            }
          ],
          "name": "ERC721InvalidSender",
          "type": "error"
        },
        {
          "inputs": [
            {
              "internalType": "uint256",
              "name": "tokenId",
              "type": "uint256"
            }
          ],
          "name": "ERC721NonexistentToken",
          "type": "error"
        },
        {
          "anonymous": false,
          "inputs": [
            {
              "indexed": true,
              "internalType": "address",
              "name": "_owner",
              "type": "address"
            },
            {
              "indexed": true,
              "internalType": "address",
              "name": "_approved",
              "type": "address"
            },
            {
              "indexed": true,
              "internalType": "uint256",
              "name": "_tokenId",
              "type": "uint256"
            }
          ],
          "name": "Approval",
          "type": "event"
        },
        {
          "anonymous": false,
          "inputs": [
            {
              "indexed": true,
              "internalType": "address",
              "name": "_owner",
              "type": "address"
            },
            {
              "indexed": true,
              "internalType": "address",
              "name": "_operator",
              "type": "address"
            },
            {
              "indexed": false,
              "internalType": "bool",
              "name": "_approved",
              "type": "bool"
            }
          ],
          "name": "ApprovalForAll",
          "type": "event"
        },
        {
          "anonymous": false,
          "inputs": [
            {
              "indexed": true,
              "internalType": "address",
              "name": "_from",
              "type": "address"
            },
            {
              "indexed": true,
              "internalType": "address",
              "name": "_to",
              "type": "address"
            },
            {
              "indexed": true,
              "internalType": "uint256",
              "name": "_tokenId",
              "type": "uint256"
            }
          ],
          "name": "Transfer",
          "type": "event"
        },
        {
          "inputs": [
            {
              "internalType": "address",
              "name": "approved",
              "type": "address"
            },
            {
              "internalType": "uint256",
              "name": "tokenId",
              "type": "uint256"
            }
          ],
          "name": "approve",
          "outputs": [],
          "stateMutability": "nonpayable",
          "type": "function"
        },
        {
          "inputs": [
            {
              "internalType": "address",
              "name": "owner",
              "type": "address"
            }
          ],
          "name": "balanceOf",
          "outputs": [
            {
              "internalType": "uint256",
              "name": "",
              "type": "uint256"
            }
          ],
          "stateMutability": "view",
          "type": "function"
        },
        {
          "inputs": [
            {
              "internalType": "uint256",
              "name": "tokenId",
              "type": "uint256"
            }
          ],
          "name": "getApproved",
          "outputs": [
            {
              "internalType": "address",
              "name": "",
              "type": "address"
            }
          ],
          "stateMutability": "view",
          "type": "function"
        },
        {
          "inputs": [
            {
              "internalType": "address",
              "name": "owner",
              "type": "address"
            },
            {
              "internalType": "address",
              "name": "operator",
              "type": "address"
            }
          ],
          "name": "isApprovedForAll",
          "outputs": [
            {
              "internalType": "bool",
              "name": "",
              "type": "bool"
            }
          ],
          "stateMutability": "view",
          "type": "function"
        },
        {
          "inputs": [],
          "name": "name",
          "outputs": [
            {
              "internalType": "string",
              "name": "",
              "type": "string"
            }
          ],
          "stateMutability": "pure",
          "type": "function"
        },
        {
          "inputs": [
            {
              "internalType": "uint256",
              "name": "tokenId",
              "type": "uint256"
            }
          ],
          "name": "ownerOf",
          "outputs": [
            {
              "internalType": "address",
              "name": "",
              "type": "address"
            }
          ],
          "stateMutability": "view",
          "type": "function"
        },
        {
          "inputs": [
            {
              "internalType": "address",
              "name": "to",
              "type": "address"
            },
            {
              "internalType": "string",
              "name": "uri",
              "type": "string"
            }
          ],
          "name": "safeMint",
          "outputs": [],
          "stateMutability": "nonpayable",
          "type": "function"
        },
        {
          "inputs": [
            {
              "internalType": "address",
              "name": "from",
              "type": "address"
            },
            {
              "internalType": "address",
              "name": "to",
              "type": "address"
            },
            {
              "internalType": "uint256",
              "name": "tokenId",
              "type": "uint256"
            }
          ],
          "name": "safeTransferFrom",
          "outputs": [],
          "stateMutability": "nonpayable",
          "type": "function"
        },
        {
          "inputs": [
            {
              "internalType": "address",
              "name": "from",
              "type": "address"
            },
            {
              "internalType": "address",
              "name": "to",
              "type": "address"
            },
            {
              "internalType": "uint256",
              "name": "tokenId",
              "type": "uint256"
            },
            {
              "internalType": "bytes",
              "name": "data",
              "type": "bytes"
            }
          ],
          "name": "safeTransferFrom",
          "outputs": [],
          "stateMutability": "nonpayable",
          "type": "function"
        },
        {
          "inputs": [
            {
              "internalType": "address",
              "name": "operator",
              "type": "address"
            },
            {
              "internalType": "bool",
              "name": "approved",
              "type": "bool"
            }
          ],
          "name": "setApprovalForAll",
          "outputs": [],
          "stateMutability": "nonpayable",
          "type": "function"
        },
        {
          "inputs": [],
          "name": "symbol",
          "outputs": [
            {
              "internalType": "string",
              "name": "",
              "type": "string"
            }
          ],
          "stateMutability": "pure",
          "type": "function"
        },
        {
          "inputs": [
            {
              "internalType": "uint256",
              "name": "tokenId",
              "type": "uint256"
            }
          ],
          "name": "tokenURI",
          "outputs": [
            {
              "internalType": "string",
              "name": "",
              "type": "string"
            }
          ],
          "stateMutability": "view",
          "type": "function"
        },
        {
          "inputs": [
            {
              "internalType": "address",
              "name": "from",
              "type": "address"
            },
            {
              "internalType": "address",
              "name": "to",
              "type": "address"
            },
            {
              "internalType": "uint256",
              "name": "tokenId",
              "type": "uint256"
            }
          ],
          "name": "transferFrom",
          "outputs": [],
          "stateMutability": "nonpayable",
          "type": "function"
        }
      ],
      "evm": {
        "bytecode": {
          "linkReferences": {},
          "object": "60806040526001600655348015601457600080fd5b50600080546001600160a01b03191633179055610ff6806100366000396000f3fe608060405234801561001057600080fd5b50600436106100df5760003560e01c806370a082311161008c578063b88d4fde11610066578063b88d4fde1461022b578063c87b56dd1461023e578063d204c45e14610251578063e985e9c51461026457600080fd5b806370a08231146101be57806395d89b41146101df578063a22cb4651461021857600080fd5b806323b872dd116100bd57806323b872dd1461018557806342842e0e146101985780636352211e146101ab57600080fd5b806306fdde03146100e4578063081812fc1461012f578063095ea7b314610170575b600080fd5b60408051808201909152601d81527f5461736b2032204578616d6c65204f662045524337323120546f6b656e00000060208201525b6040516101269190610b28565b60405180910390f35b61015861013d366004610b42565b6000908152600160205260409020546001600160a01b031690565b6040516001600160a01b039091168152602001610126565b61018361017e366004610b77565b6102b0565b005b610183610193366004610ba1565b6102c1565b6101836101a6366004610ba1565b610379565b6101586101b9366004610b42565b610399565b6101d16101cc366004610bde565b6103f1565b604051908152602001610126565b60408051808201909152600981527f5432454f453732315400000000000000000000000000000000000000000000006020820152610119565b610183610226366004610bf9565b610452565b610183610239366004610cc5565b61050b565b61011961024c366004610b42565b610523565b61018361025f366004610d41565b6105c5565b6102a0610272366004610da3565b6001600160a01b03918216600090815260046020908152604080832093909416825291909152205460ff1690565b6040519015158152602001610126565b6102bd828233600161068f565b5050565b6000818152600160205260409020546001600160a01b0390811690831661030357604051633250574960e11b8152600060048201526024015b60405180910390fd5b836001600160a01b0316816001600160a01b031614610368576040517f64283d7b0000000000000000000000000000000000000000000000000000000081526001600160a01b03808616600483015260248201849052821660448201526064016102fa565b6103738383336107e0565b50505050565b6103948383836040518060200160405280600081525061050b565b505050565b6000818152600160205260408120546001600160a01b0316806103eb576040517f7e273289000000000000000000000000000000000000000000000000000000008152600481018490526024016102fa565b92915050565b60006001600160a01b038216610436576040517f89c62b64000000000000000000000000000000000000000000000000000000008152600060048201526024016102fa565b506001600160a01b031660009081526002602052604090205490565b336001600160a01b03831661049e576040517f5b08ba180000000000000000000000000000000000000000000000000000000081526001600160a01b03841660048201526024016102fa565b6001600160a01b03818116600081815260046020908152604080832094881680845294825291829020805460ff191687151590811790915591519182527f17307eab39ab6107e8899845ad3d59bd9653f200f220920489ca2b5937696c31910160405180910390a3505050565b6105168484846102c1565b6103733385858585610919565b600081815260056020526040902080546060919061054090610dd6565b80601f016020809104026020016040519081016040528092919081815260200182805461056c90610dd6565b80156105b95780601f1061058e576101008083540402835291602001916105b9565b820191906000526020600020905b81548152906001019060200180831161059c57829003601f168201915b50505050509050919050565b60005433906001600160a01b03168114610616576040517f73c6ac6e0000000000000000000000000000000000000000000000000000000081526001600160a01b03821660048201526024016102fa565b600042600654604051602001610636929190918252602082015260400190565b60408051601f1981840301815291815281516020928301206000818152600590935291209091506106678482610e57565b50610674848260006107e0565b6006805490600061068483610f16565b919050555050505050565b80806106a357506001600160a01b03821615155b156107a3576000838152600160205260409020546001600160a01b03908116908316158015906106e55750826001600160a01b0316816001600160a01b031614155b801561071757506001600160a01b0380821660009081526004602090815260408083209387168352929052205460ff16155b15610759576040517fa9fbf51f0000000000000000000000000000000000000000000000000000000081526001600160a01b03841660048201526024016102fa565b81156107a15783856001600160a01b0316826001600160a01b03167f8c5be1e5ebec7d5bd14f71427d1e84f3dd0314c0f7b2291e5b200ac8c7c3b92560405160405180910390a45b505b50506000908152600360205260409020805473ffffffffffffffffffffffffffffffffffffffff19166001600160a01b0392909216919091179055565b6000828152600160205260409020546001600160a01b0316801561088057610809818385610a5c565b610851576040517f177e802f0000000000000000000000000000000000000000000000000000000081526001600160a01b0382166004820152602481018490526044016102fa565b61085f60008460008061068f565b6001600160a01b038116600090815260026020526040902080546000190190555b6001600160a01b038416156108af576001600160a01b0384166000908152600260205260409020805460010190555b600083815260016020526040808220805473ffffffffffffffffffffffffffffffffffffffff19166001600160a01b0388811691821790925591518693918516917fddf252ad1be2c89b69c2b068fc378daa952ba7f163c4a11628f55a4df523b3ef91a450505050565b6001600160a01b0383163b15610a5557604051630a85bd0160e11b81526001600160a01b0384169063150b7a029061095b908890889087908790600401610f3d565b6020604051808303816000875af1925050508015610996575060408051601f3d908101601f1916820190925261099391810190610f7e565b60015b6109ff573d8080156109c4576040519150601f19603f3d011682016040523d82523d6000602084013e6109c9565b606091505b5080516000036109f757604051633250574960e11b81526001600160a01b03851660048201526024016102fa565b805181602001fd5b7fffffffff000000000000000000000000000000000000000000000000000000008116630a85bd0160e11b14610a5357604051633250574960e11b81526001600160a01b03851660048201526024016102fa565b505b5050505050565b60006001600160a01b03831615801590610ada5750826001600160a01b0316846001600160a01b03161480610ab657506001600160a01b0380851660009081526004602090815260408083209387168352929052205460ff165b80610ada57506000828152600160205260409020546001600160a01b038481169116145b949350505050565b6000815180845260005b81811015610b0857602081850181015186830182015201610aec565b506000602082860101526020601f19601f83011685010191505092915050565b602081526000610b3b6020830184610ae2565b9392505050565b600060208284031215610b5457600080fd5b5035919050565b80356001600160a01b0381168114610b7257600080fd5b919050565b60008060408385031215610b8a57600080fd5b610b9383610b5b565b946020939093013593505050565b600080600060608486031215610bb657600080fd5b610bbf84610b5b565b9250610bcd60208501610b5b565b929592945050506040919091013590565b600060208284031215610bf057600080fd5b610b3b82610b5b565b60008060408385031215610c0c57600080fd5b610c1583610b5b565b915060208301358015158114610c2a57600080fd5b809150509250929050565b634e487b7160e01b600052604160045260246000fd5b60008067ffffffffffffffff841115610c6657610c66610c35565b50604051601f19601f85018116603f0116810181811067ffffffffffffffff82111715610c9557610c95610c35565b604052838152905080828401851015610cad57600080fd5b83836020830137600060208583010152509392505050565b60008060008060808587031215610cdb57600080fd5b610ce485610b5b565b9350610cf260208601610b5b565b925060408501359150606085013567ffffffffffffffff811115610d1557600080fd5b8501601f81018713610d2657600080fd5b610d3587823560208401610c4b565b91505092959194509250565b60008060408385031215610d5457600080fd5b610d5d83610b5b565b9150602083013567ffffffffffffffff811115610d7957600080fd5b8301601f81018513610d8a57600080fd5b610d9985823560208401610c4b565b9150509250929050565b60008060408385031215610db657600080fd5b610dbf83610b5b565b9150610dcd60208401610b5b565b90509250929050565b600181811c90821680610dea57607f821691505b602082108103610e0a57634e487b7160e01b600052602260045260246000fd5b50919050565b601f82111561039457806000526020600020601f840160051c81016020851015610e375750805b601f840160051c820191505b81811015610a555760008155600101610e43565b815167ffffffffffffffff811115610e7157610e71610c35565b610e8581610e7f8454610dd6565b84610e10565b6020601f821160018114610eb95760008315610ea15750848201515b600019600385901b1c1916600184901b178455610a55565b600084815260208120601f198516915b82811015610ee95787850151825560209485019460019092019101610ec9565b5084821015610f075786840151600019600387901b60f8161c191681555b50505050600190811b01905550565b600060018201610f3657634e487b7160e01b600052601160045260246000fd5b5060010190565b6001600160a01b03851681526001600160a01b0384166020820152826040820152608060608201526000610f746080830184610ae2565b9695505050505050565b600060208284031215610f9057600080fd5b81517fffffffff0000000000000000000000000000000000000000000000000000000081168114610b3b57600080fdfea26469706673582212208b4cc990049a60d9488a98a94885ce7a57adb366c609cbbef7c64a5407b351a264736f6c634300081c0033",
          "opcodes": "PUSH1 0x80 PUSH1 0x40 MSTORE PUSH1 0x1 PUSH1 0x6 SSTORE CALLVALUE DUP1 ISZERO PUSH1 0x14 JUMPI PUSH1 0x0 DUP1 REVERT JUMPDEST POP PUSH1 0x0 DUP1 SLOAD PUSH1 0x1 PUSH1 0x1 PUSH1 0xA0 SHL SUB NOT AND CALLER OR SWAP1 SSTORE PUSH2 0xFF6 DUP1 PUSH2 0x36 PUSH1 0x0 CODECOPY PUSH1 0x0 RETURN INVALID PUSH1 0x80 PUSH1 0x40 MSTORE CALLVALUE DUP1 ISZERO PUSH2 0x10 JUMPI PUSH1 0x0 DUP1 REVERT JUMPDEST POP PUSH1 0x4 CALLDATASIZE LT PUSH2 0xDF JUMPI PUSH1 0x0 CALLDATALOAD PUSH1 0xE0 SHR DUP1 PUSH4 0x70A08231 GT PUSH2 0x8C JUMPI DUP1 PUSH4 0xB88D4FDE GT PUSH2 0x66 JUMPI DUP1 PUSH4 0xB88D4FDE EQ PUSH2 0x22B JUMPI DUP1 PUSH4 0xC87B56DD EQ PUSH2 0x23E JUMPI DUP1 PUSH4 0xD204C45E EQ PUSH2 0x251 JUMPI DUP1 PUSH4 0xE985E9C5 EQ PUSH2 0x264 JUMPI PUSH1 0x0 DUP1 REVERT JUMPDEST DUP1 PUSH4 0x70A08231 EQ PUSH2 0x1BE JUMPI DUP1 PUSH4 0x95D89B41 EQ PUSH2 0x1DF JUMPI DUP1 PUSH4 0xA22CB465 EQ PUSH2 0x218 JUMPI PUSH1 0x0 DUP1 REVERT JUMPDEST DUP1 PUSH4 0x23B872DD GT PUSH2 0xBD JUMPI DUP1 PUSH4 0x23B872DD EQ PUSH2 0x185 JUMPI DUP1 PUSH4 0x42842E0E EQ PUSH2 0x198 JUMPI DUP1 PUSH4 0x6352211E EQ PUSH2 0x1AB JUMPI PUSH1 0x0 DUP1 REVERT JUMPDEST DUP1 PUSH4 0x6FDDE03 EQ PUSH2 0xE4 JUMPI DUP1 PUSH4 0x81812FC EQ PUSH2 0x12F JUMPI DUP1 PUSH4 0x95EA7B3 EQ PUSH2 0x170 JUMPI JUMPDEST PUSH1 0x0 DUP1 REVERT JUMPDEST PUSH1 0x40 DUP1 MLOAD DUP1 DUP3 ADD SWAP1 SWAP2 MSTORE PUSH1 0x1D DUP2 MSTORE PUSH32 0x5461736B2032204578616D6C65204F662045524337323120546F6B656E000000 PUSH1 0x20 DUP3 ADD MSTORE JUMPDEST PUSH1 0x40 MLOAD PUSH2 0x126 SWAP2 SWAP1 PUSH2 0xB28 JUMP JUMPDEST PUSH1 0x40 MLOAD DUP1 SWAP2 SUB SWAP1 RETURN JUMPDEST PUSH2 0x158 PUSH2 0x13D CALLDATASIZE PUSH1 0x4 PUSH2 0xB42 JUMP JUMPDEST PUSH1 0x0 SWAP1 DUP2 MSTORE PUSH1 0x1 PUSH1 0x20 MSTORE PUSH1 0x40 SWAP1 KECCAK256 SLOAD PUSH1 0x1 PUSH1 0x1 PUSH1 0xA0 SHL SUB AND SWAP1 JUMP JUMPDEST PUSH1 0x40 MLOAD PUSH1 0x1 PUSH1 0x1 PUSH1 0xA0 SHL SUB SWAP1 SWAP2 AND DUP2 MSTORE PUSH1 0x20 ADD PUSH2 0x126 JUMP JUMPDEST PUSH2 0x183 PUSH2 0x17E CALLDATASIZE PUSH1 0x4 PUSH2 0xB77 JUMP JUMPDEST PUSH2 0x2B0 JUMP JUMPDEST STOP JUMPDEST PUSH2 0x183 PUSH2 0x193 CALLDATASIZE PUSH1 0x4 PUSH2 0xBA1 JUMP JUMPDEST PUSH2 0x2C1 JUMP JUMPDEST PUSH2 0x183 PUSH2 0x1A6 CALLDATASIZE PUSH1 0x4 PUSH2 0xBA1 JUMP JUMPDEST PUSH2 0x379 JUMP JUMPDEST PUSH2 0x158 PUSH2 0x1B9 CALLDATASIZE PUSH1 0x4 PUSH2 0xB42 JUMP JUMPDEST PUSH2 0x399 JUMP JUMPDEST PUSH2 0x1D1 PUSH2 0x1CC CALLDATASIZE PUSH1 0x4 PUSH2 0xBDE JUMP JUMPDEST PUSH2 0x3F1 JUMP JUMPDEST PUSH1 0x40 MLOAD SWAP1 DUP2 MSTORE PUSH1 0x20 ADD PUSH2 0x126 JUMP JUMPDEST PUSH1 0x40 DUP1 MLOAD DUP1 DUP3 ADD SWAP1 SWAP2 MSTORE PUSH1 0x9 DUP2 MSTORE PUSH32 0x5432454F45373231540000000000000000000000000000000000000000000000 PUSH1 0x20 DUP3 ADD MSTORE PUSH2 0x119 JUMP JUMPDEST PUSH2 0x183 PUSH2 0x226 CALLDATASIZE PUSH1 0x4 PUSH2 0xBF9 JUMP JUMPDEST PUSH2 0x452 JUMP JUMPDEST PUSH2 0x183 PUSH2 0x239 CALLDATASIZE PUSH1 0x4 PUSH2 0xCC5 JUMP JUMPDEST PUSH2 0x50B JUMP JUMPDEST PUSH2 0x119 PUSH2 0x24C CALLDATASIZE PUSH1 0x4 PUSH2 0xB42 JUMP JUMPDEST PUSH2 0x523 JUMP JUMPDEST PUSH2 0x183 PUSH2 0x25F CALLDATASIZE PUSH1 0x4 PUSH2 0xD41 JUMP JUMPDEST PUSH2 0x5C5 JUMP JUMPDEST PUSH2 0x2A0 PUSH2 0x272 CALLDATASIZE PUSH1 0x4 PUSH2 0xDA3 JUMP JUMPDEST PUSH1 0x1 PUSH1 0x1 PUSH1 0xA0 SHL SUB SWAP2 DUP3 AND PUSH1 0x0 SWAP1 DUP2 MSTORE PUSH1 0x4 PUSH1 0x20 SWAP1 DUP2 MSTORE PUSH1 0x40 DUP1 DUP4 KECCAK256 SWAP4 SWAP1 SWAP5 AND DUP3 MSTORE SWAP2 SWAP1 SWAP2 MSTORE KECCAK256 SLOAD PUSH1 0xFF AND SWAP1 JUMP JUMPDEST PUSH1 0x40 MLOAD SWAP1 ISZERO ISZERO DUP2 MSTORE PUSH1 0x20 ADD PUSH2 0x126 JUMP JUMPDEST PUSH2 0x2BD DUP3 DUP3 CALLER PUSH1 0x1 PUSH2 0x68F JUMP JUMPDEST POP POP JUMP JUMPDEST PUSH1 0x0 DUP2 DUP2 MSTORE PUSH1 0x1 PUSH1 0x20 MSTORE PUSH1 0x40 SWAP1 KECCAK256 SLOAD PUSH1 0x1 PUSH1 0x1 PUSH1 0xA0 SHL SUB SWAP1 DUP2 AND SWAP1 DUP4 AND PUSH2 0x303 JUMPI PUSH1 0x40 MLOAD PUSH4 0x32505749 PUSH1 0xE1 SHL DUP2 MSTORE PUSH1 0x0 PUSH1 0x4 DUP3 ADD MSTORE PUSH1 0x24 ADD JUMPDEST PUSH1 0x40 MLOAD DUP1 SWAP2 SUB SWAP1 REVERT JUMPDEST DUP4 PUSH1 0x1 PUSH1 0x1 PUSH1 0xA0 SHL SUB AND DUP2 PUSH1 0x1 PUSH1 0x1 PUSH1 0xA0 SHL SUB AND EQ PUSH2 0x368 JUMPI PUSH1 0x40 MLOAD PUSH32 0x64283D7B00000000000000000000000000000000000000000000000000000000 DUP2 MSTORE PUSH1 0x1 PUSH1 0x1 PUSH1 0xA0 SHL SUB DUP1 DUP7 AND PUSH1 0x4 DUP4 ADD MSTORE PUSH1 0x24 DUP3 ADD DUP5 SWAP1 MSTORE DUP3 AND PUSH1 0x44 DUP3 ADD MSTORE PUSH1 0x64 ADD PUSH2 0x2FA JUMP JUMPDEST PUSH2 0x373 DUP4 DUP4 CALLER PUSH2 0x7E0 JUMP JUMPDEST POP POP POP POP JUMP JUMPDEST PUSH2 0x394 DUP4 DUP4 DUP4 PUSH1 0x40 MLOAD DUP1 PUSH1 0x20 ADD PUSH1 0x40 MSTORE DUP1 PUSH1 0x0 DUP2 MSTORE POP PUSH2 0x50B JUMP JUMPDEST POP POP POP JUMP JUMPDEST PUSH1 0x0 DUP2 DUP2 MSTORE PUSH1 0x1 PUSH1 0x20 MSTORE PUSH1 0x40 DUP2 KECCAK256 SLOAD PUSH1 0x1 PUSH1 0x1 PUSH1 0xA0 SHL SUB AND DUP1 PUSH2 0x3EB JUMPI PUSH1 0x40 MLOAD PUSH32 0x7E27328900000000000000000000000000000000000000000000000000000000 DUP2 MSTORE PUSH1 0x4 DUP2 ADD DUP5 SWAP1 MSTORE PUSH1 0x24 ADD PUSH2 0x2FA JUMP JUMPDEST SWAP3 SWAP2 POP POP JUMP JUMPDEST PUSH1 0x0 PUSH1 0x1 PUSH1 0x1 PUSH1 0xA0 SHL SUB DUP3 AND PUSH2 0x436 JUMPI PUSH1 0x40 MLOAD PUSH32 0x89C62B6400000000000000000000000000000000000000000000000000000000 DUP2 MSTORE PUSH1 0x0 PUSH1 0x4 DUP3 ADD MSTORE PUSH1 0x24 ADD PUSH2 0x2FA JUMP JUMPDEST POP PUSH1 0x1 PUSH1 0x1 PUSH1 0xA0 SHL SUB AND PUSH1 0x0 SWAP1 DUP2 MSTORE PUSH1 0x2 PUSH1 0x20 MSTORE PUSH1 0x40 SWAP1 KECCAK256 SLOAD SWAP1 JUMP JUMPDEST CALLER PUSH1 0x1 PUSH1 0x1 PUSH1 0xA0 SHL SUB DUP4 AND PUSH2 0x49E JUMPI PUSH1 0x40 MLOAD PUSH32 0x5B08BA1800000000000000000000000000000000000000000000000000000000 DUP2 MSTORE PUSH1 0x1 PUSH1 0x1 PUSH1 0xA0 SHL SUB DUP5 AND PUSH1 0x4 DUP3 ADD MSTORE PUSH1 0x24 ADD PUSH2 0x2FA JUMP JUMPDEST PUSH1 0x1 PUSH1 0x1 PUSH1 0xA0 SHL SUB DUP2 DUP2 AND PUSH1 0x0 DUP2 DUP2 MSTORE PUSH1 0x4 PUSH1 0x20 SWAP1 DUP2 MSTORE PUSH1 0x40 DUP1 DUP4 KECCAK256 SWAP5 DUP9 AND DUP1 DUP5 MSTORE SWAP5 DUP3 MSTORE SWAP2 DUP3 SWAP1 KECCAK256 DUP1 SLOAD PUSH1 0xFF NOT AND DUP8 ISZERO ISZERO SWAP1 DUP2 OR SWAP1 SWAP2 SSTORE SWAP2 MLOAD SWAP2 DUP3 MSTORE PUSH32 0x17307EAB39AB6107E8899845AD3D59BD9653F200F220920489CA2B5937696C31 SWAP2 ADD PUSH1 0x40 MLOAD DUP1 SWAP2 SUB SWAP1 LOG3 POP POP POP JUMP JUMPDEST PUSH2 0x516 DUP5 DUP5 DUP5 PUSH2 0x2C1 JUMP JUMPDEST PUSH2 0x373 CALLER DUP6 DUP6 DUP6 DUP6 PUSH2 0x919 JUMP JUMPDEST PUSH1 0x0 DUP2 DUP2 MSTORE PUSH1 0x5 PUSH1 0x20 MSTORE PUSH1 0x40 SWAP1 KECCAK256 DUP1 SLOAD PUSH1 0x60 SWAP2 SWAP1 PUSH2 0x540 SWAP1 PUSH2 0xDD6 JUMP JUMPDEST DUP1 PUSH1 0x1F ADD PUSH1 0x20 DUP1 SWAP2 DIV MUL PUSH1 0x20 ADD PUSH1 0x40 MLOAD SWAP1 DUP2 ADD PUSH1 0x40 MSTORE DUP1 SWAP3 SWAP2 SWAP1 DUP2 DUP2 MSTORE PUSH1 0x20 ADD DUP3 DUP1 SLOAD PUSH2 0x56C SWAP1 PUSH2 0xDD6 JUMP JUMPDEST DUP1 ISZERO PUSH2 0x5B9 JUMPI DUP1 PUSH1 0x1F LT PUSH2 0x58E JUMPI PUSH2 0x100 DUP1 DUP4 SLOAD DIV MUL DUP4 MSTORE SWAP2 PUSH1 0x20 ADD SWAP2 PUSH2 0x5B9 JUMP JUMPDEST DUP3 ADD SWAP2 SWAP1 PUSH1 0x0 MSTORE PUSH1 0x20 PUSH1 0x0 KECCAK256 SWAP1 JUMPDEST DUP2 SLOAD DUP2 MSTORE SWAP1 PUSH1 0x1 ADD SWAP1 PUSH1 0x20 ADD DUP1 DUP4 GT PUSH2 0x59C JUMPI DUP3 SWAP1 SUB PUSH1 0x1F AND DUP3 ADD SWAP2 JUMPDEST POP POP POP POP POP SWAP1 POP SWAP2 SWAP1 POP JUMP JUMPDEST PUSH1 0x0 SLOAD CALLER SWAP1 PUSH1 0x1 PUSH1 0x1 PUSH1 0xA0 SHL SUB AND DUP2 EQ PUSH2 0x616 JUMPI PUSH1 0x40 MLOAD PUSH32 0x73C6AC6E00000000000000000000000000000000000000000000000000000000 DUP2 MSTORE PUSH1 0x1 PUSH1 0x1 PUSH1 0xA0 SHL SUB DUP3 AND PUSH1 0x4 DUP3 ADD MSTORE PUSH1 0x24 ADD PUSH2 0x2FA JUMP JUMPDEST PUSH1 0x0 TIMESTAMP PUSH1 0x6 SLOAD PUSH1 0x40 MLOAD PUSH1 0x20 ADD PUSH2 0x636 SWAP3 SWAP2 SWAP1 SWAP2 DUP3 MSTORE PUSH1 0x20 DUP3 ADD MSTORE PUSH1 0x40 ADD SWAP1 JUMP JUMPDEST PUSH1 0x40 DUP1 MLOAD PUSH1 0x1F NOT DUP2 DUP5 SUB ADD DUP2 MSTORE SWAP2 DUP2 MSTORE DUP2 MLOAD PUSH1 0x20 SWAP3 DUP4 ADD KECCAK256 PUSH1 0x0 DUP2 DUP2 MSTORE PUSH1 0x5 SWAP1 SWAP4 MSTORE SWAP2 KECCAK256 SWAP1 SWAP2 POP PUSH2 0x667 DUP5 DUP3 PUSH2 0xE57 JUMP JUMPDEST POP PUSH2 0x674 DUP5 DUP3 PUSH1 0x0 PUSH2 0x7E0 JUMP JUMPDEST PUSH1 0x6 DUP1 SLOAD SWAP1 PUSH1 0x0 PUSH2 0x684 DUP4 PUSH2 0xF16 JUMP JUMPDEST SWAP2 SWAP1 POP SSTORE POP POP POP POP POP JUMP JUMPDEST DUP1 DUP1 PUSH2 0x6A3 JUMPI POP PUSH1 0x1 PUSH1 0x1 PUSH1 0xA0 SHL SUB DUP3 AND ISZERO ISZERO JUMPDEST ISZERO PUSH2 0x7A3 JUMPI PUSH1 0x0 DUP4 DUP2 MSTORE PUSH1 0x1 PUSH1 0x20 MSTORE PUSH1 0x40 SWAP1 KECCAK256 SLOAD PUSH1 0x1 PUSH1 0x1 PUSH1 0xA0 SHL SUB SWAP1 DUP2 AND SWAP1 DUP4 AND ISZERO DUP1 ISZERO SWAP1 PUSH2 0x6E5 JUMPI POP DUP3 PUSH1 0x1 PUSH1 0x1 PUSH1 0xA0 SHL SUB AND DUP2 PUSH1 0x1 PUSH1 0x1 PUSH1 0xA0 SHL SUB AND EQ ISZERO JUMPDEST DUP1 ISZERO PUSH2 0x717 JUMPI POP PUSH1 0x1 PUSH1 0x1 PUSH1 0xA0 SHL SUB DUP1 DUP3 AND PUSH1 0x0 SWAP1 DUP2 MSTORE PUSH1 0x4 PUSH1 0x20 SWAP1 DUP2 MSTORE PUSH1 0x40 DUP1 DUP4 KECCAK256 SWAP4 DUP8 AND DUP4 MSTORE SWAP3 SWAP1 MSTORE KECCAK256 SLOAD PUSH1 0xFF AND ISZERO JUMPDEST ISZERO PUSH2 0x759 JUMPI PUSH1 0x40 MLOAD PUSH32 0xA9FBF51F00000000000000000000000000000000000000000000000000000000 DUP2 MSTORE PUSH1 0x1 PUSH1 0x1 PUSH1 0xA0 SHL SUB DUP5 AND PUSH1 0x4 DUP3 ADD MSTORE PUSH1 0x24 ADD PUSH2 0x2FA JUMP JUMPDEST DUP2 ISZERO PUSH2 0x7A1 JUMPI DUP4 DUP6 PUSH1 0x1 PUSH1 0x1 PUSH1 0xA0 SHL SUB AND DUP3 PUSH1 0x1 PUSH1 0x1 PUSH1 0xA0 SHL SUB AND PUSH32 0x8C5BE1E5EBEC7D5BD14F71427D1E84F3DD0314C0F7B2291E5B200AC8C7C3B925 PUSH1 0x40 MLOAD PUSH1 0x40 MLOAD DUP1 SWAP2 SUB SWAP1 LOG4 JUMPDEST POP JUMPDEST POP POP PUSH1 0x0 SWAP1 DUP2 MSTORE PUSH1 0x3 PUSH1 0x20 MSTORE PUSH1 0x40 SWAP1 KECCAK256 DUP1 SLOAD PUSH20 0xFFFFFFFFFFFFFFFFFFFFFFFFFFFFFFFFFFFFFFFF NOT AND PUSH1 0x1 PUSH1 0x1 PUSH1 0xA0 SHL SUB SWAP3 SWAP1 SWAP3 AND SWAP2 SWAP1 SWAP2 OR SWAP1 SSTORE JUMP JUMPDEST PUSH1 0x0 DUP3 DUP2 MSTORE PUSH1 0x1 PUSH1 0x20 MSTORE PUSH1 0x40 SWAP1 KECCAK256 SLOAD PUSH1 0x1 PUSH1 0x1 PUSH1 0xA0 SHL SUB AND DUP1 ISZERO PUSH2 0x880 JUMPI PUSH2 0x809 DUP2 DUP4 DUP6 PUSH2 0xA5C JUMP JUMPDEST PUSH2 0x851 JUMPI PUSH1 0x40 MLOAD PUSH32 0x177E802F00000000000000000000000000000000000000000000000000000000 DUP2 MSTORE PUSH1 0x1 PUSH1 0x1 PUSH1 0xA0 SHL SUB DUP3 AND PUSH1 0x4 DUP3 ADD MSTORE PUSH1 0x24 DUP2 ADD DUP5 SWAP1 MSTORE PUSH1 0x44 ADD PUSH2 0x2FA JUMP JUMPDEST PUSH2 0x85F PUSH1 0x0 DUP5 PUSH1 0x0 DUP1 PUSH2 0x68F JUMP JUMPDEST PUSH1 0x1 PUSH1 0x1 PUSH1 0xA0 SHL SUB DUP2 AND PUSH1 0x0 SWAP1 DUP2 MSTORE PUSH1 0x2 PUSH1 0x20 MSTORE PUSH1 0x40 SWAP1 KECCAK256 DUP1 SLOAD PUSH1 0x0 NOT ADD SWAP1 SSTORE JUMPDEST PUSH1 0x1 PUSH1 0x1 PUSH1 0xA0 SHL SUB DUP5 AND ISZERO PUSH2 0x8AF JUMPI PUSH1 0x1 PUSH1 0x1 PUSH1 0xA0 SHL SUB DUP5 AND PUSH1 0x0 SWAP1 DUP2 MSTORE PUSH1 0x2 PUSH1 0x20 MSTORE PUSH1 0x40 SWAP1 KECCAK256 DUP1 SLOAD PUSH1 0x1 ADD SWAP1 SSTORE JUMPDEST PUSH1 0x0 DUP4 DUP2 MSTORE PUSH1 0x1 PUSH1 0x20 MSTORE PUSH1 0x40 DUP1 DUP3 KECCAK256 DUP1 SLOAD PUSH20 0xFFFFFFFFFFFFFFFFFFFFFFFFFFFFFFFFFFFFFFFF NOT AND PUSH1 0x1 PUSH1 0x1 PUSH1 0xA0 SHL SUB DUP9 DUP2 AND SWAP2 DUP3 OR SWAP1 SWAP3 SSTORE SWAP2 MLOAD DUP7 SWAP4 SWAP2 DUP6 AND SWAP2 PUSH32 0xDDF252AD1BE2C89B69C2B068FC378DAA952BA7F163C4A11628F55A4DF523B3EF SWAP2 LOG4 POP POP POP POP JUMP JUMPDEST PUSH1 0x1 PUSH1 0x1 PUSH1 0xA0 SHL SUB DUP4 AND EXTCODESIZE ISZERO PUSH2 0xA55 JUMPI PUSH1 0x40 MLOAD PUSH4 0xA85BD01 PUSH1 0xE1 SHL DUP2 MSTORE PUSH1 0x1 PUSH1 0x1 PUSH1 0xA0 SHL SUB DUP5 AND SWAP1 PUSH4 0x150B7A02 SWAP1 PUSH2 0x95B SWAP1 DUP9 SWAP1 DUP9 SWAP1 DUP8 SWAP1 DUP8 SWAP1 PUSH1 0x4 ADD PUSH2 0xF3D JUMP JUMPDEST PUSH1 0x20 PUSH1 0x40 MLOAD DUP1 DUP4 SUB DUP2 PUSH1 0x0 DUP8 GAS CALL SWAP3 POP POP POP DUP1 ISZERO PUSH2 0x996 JUMPI POP PUSH1 0x40 DUP1 MLOAD PUSH1 0x1F RETURNDATASIZE SWAP1 DUP2 ADD PUSH1 0x1F NOT AND DUP3 ADD SWAP1 SWAP3 MSTORE PUSH2 0x993 SWAP2 DUP2 ADD SWAP1 PUSH2 0xF7E JUMP JUMPDEST PUSH1 0x1 JUMPDEST PUSH2 0x9FF JUMPI RETURNDATASIZE DUP1 DUP1 ISZERO PUSH2 0x9C4 JUMPI PUSH1 0x40 MLOAD SWAP2 POP PUSH1 0x1F NOT PUSH1 0x3F RETURNDATASIZE ADD AND DUP3 ADD PUSH1 0x40 MSTORE RETURNDATASIZE DUP3 MSTORE RETURNDATASIZE PUSH1 0x0 PUSH1 0x20 DUP5 ADD RETURNDATACOPY PUSH2 0x9C9 JUMP JUMPDEST PUSH1 0x60 SWAP2 POP JUMPDEST POP DUP1 MLOAD PUSH1 0x0 SUB PUSH2 0x9F7 JUMPI PUSH1 0x40 MLOAD PUSH4 0x32505749 PUSH1 0xE1 SHL DUP2 MSTORE PUSH1 0x1 PUSH1 0x1 PUSH1 0xA0 SHL SUB DUP6 AND PUSH1 0x4 DUP3 ADD MSTORE PUSH1 0x24 ADD PUSH2 0x2FA JUMP JUMPDEST DUP1 MLOAD DUP2 PUSH1 0x20 ADD REVERT JUMPDEST PUSH32 0xFFFFFFFF00000000000000000000000000000000000000000000000000000000 DUP2 AND PUSH4 0xA85BD01 PUSH1 0xE1 SHL EQ PUSH2 0xA53 JUMPI PUSH1 0x40 MLOAD PUSH4 0x32505749 PUSH1 0xE1 SHL DUP2 MSTORE PUSH1 0x1 PUSH1 0x1 PUSH1 0xA0 SHL SUB DUP6 AND PUSH1 0x4 DUP3 ADD MSTORE PUSH1 0x24 ADD PUSH2 0x2FA JUMP JUMPDEST POP JUMPDEST POP POP POP POP POP JUMP JUMPDEST PUSH1 0x0 PUSH1 0x1 PUSH1 0x1 PUSH1 0xA0 SHL SUB DUP4 AND ISZERO DUP1 ISZERO SWAP1 PUSH2 0xADA JUMPI POP DUP3 PUSH1 0x1 PUSH1 0x1 PUSH1 0xA0 SHL SUB AND DUP5 PUSH1 0x1 PUSH1 0x1 PUSH1 0xA0 SHL SUB AND EQ DUP1 PUSH2 0xAB6 JUMPI POP PUSH1 0x1 PUSH1 0x1 PUSH1 0xA0 SHL SUB DUP1 DUP6 AND PUSH1 0x0 SWAP1 DUP2 MSTORE PUSH1 0x4 PUSH1 0x20 SWAP1 DUP2 MSTORE PUSH1 0x40 DUP1 DUP4 KECCAK256 SWAP4 DUP8 AND DUP4 MSTORE SWAP3 SWAP1 MSTORE KECCAK256 SLOAD PUSH1 0xFF AND JUMPDEST DUP1 PUSH2 0xADA JUMPI POP PUSH1 0x0 DUP3 DUP2 MSTORE PUSH1 0x1 PUSH1 0x20 MSTORE PUSH1 0x40 SWAP1 KECCAK256 SLOAD PUSH1 0x1 PUSH1 0x1 PUSH1 0xA0 SHL SUB DUP5 DUP2 AND SWAP2 AND EQ JUMPDEST SWAP5 SWAP4 POP POP POP POP JUMP JUMPDEST PUSH1 0x0 DUP2 MLOAD DUP1 DUP5 MSTORE PUSH1 0x0 JUMPDEST DUP2 DUP2 LT ISZERO PUSH2 0xB08 JUMPI PUSH1 0x20 DUP2 DUP6 ADD DUP2 ADD MLOAD DUP7 DUP4 ADD DUP3 ADD MSTORE ADD PUSH2 0xAEC JUMP JUMPDEST POP PUSH1 0x0 PUSH1 0x20 DUP3 DUP7 ADD ADD MSTORE PUSH1 0x20 PUSH1 0x1F NOT PUSH1 0x1F DUP4 ADD AND DUP6 ADD ADD SWAP2 POP POP SWAP3 SWAP2 POP POP JUMP JUMPDEST PUSH1 0x20 DUP2 MSTORE PUSH1 0x0 PUSH2 0xB3B PUSH1 0x20 DUP4 ADD DUP5 PUSH2 0xAE2 JUMP JUMPDEST SWAP4 SWAP3 POP POP POP JUMP JUMPDEST PUSH1 0x0 PUSH1 0x20 DUP3 DUP5 SUB SLT ISZERO PUSH2 0xB54 JUMPI PUSH1 0x0 DUP1 REVERT JUMPDEST POP CALLDATALOAD SWAP2 SWAP1 POP JUMP JUMPDEST DUP1 CALLDATALOAD PUSH1 0x1 PUSH1 0x1 PUSH1 0xA0 SHL SUB DUP2 AND DUP2 EQ PUSH2 0xB72 JUMPI PUSH1 0x0 DUP1 REVERT JUMPDEST SWAP2 SWAP1 POP JUMP JUMPDEST PUSH1 0x0 DUP1 PUSH1 0x40 DUP4 DUP6 SUB SLT ISZERO PUSH2 0xB8A JUMPI PUSH1 0x0 DUP1 REVERT JUMPDEST PUSH2 0xB93 DUP4 PUSH2 0xB5B JUMP JUMPDEST SWAP5 PUSH1 0x20 SWAP4 SWAP1 SWAP4 ADD CALLDATALOAD SWAP4 POP POP POP JUMP JUMPDEST PUSH1 0x0 DUP1 PUSH1 0x0 PUSH1 0x60 DUP5 DUP7 SUB SLT ISZERO PUSH2 0xBB6 JUMPI PUSH1 0x0 DUP1 REVERT JUMPDEST PUSH2 0xBBF DUP5 PUSH2 0xB5B JUMP JUMPDEST SWAP3 POP PUSH2 0xBCD PUSH1 0x20 DUP6 ADD PUSH2 0xB5B JUMP JUMPDEST SWAP3 SWAP6 SWAP3 SWAP5 POP POP POP PUSH1 0x40 SWAP2 SWAP1 SWAP2 ADD CALLDATALOAD SWAP1 JUMP JUMPDEST PUSH1 0x0 PUSH1 0x20 DUP3 DUP5 SUB SLT ISZERO PUSH2 0xBF0 JUMPI PUSH1 0x0 DUP1 REVERT JUMPDEST PUSH2 0xB3B DUP3 PUSH2 0xB5B JUMP JUMPDEST PUSH1 0x0 DUP1 PUSH1 0x40 DUP4 DUP6 SUB SLT ISZERO PUSH2 0xC0C JUMPI PUSH1 0x0 DUP1 REVERT JUMPDEST PUSH2 0xC15 DUP4 PUSH2 0xB5B JUMP JUMPDEST SWAP2 POP PUSH1 0x20 DUP4 ADD CALLDATALOAD DUP1 ISZERO ISZERO DUP2 EQ PUSH2 0xC2A JUMPI PUSH1 0x0 DUP1 REVERT JUMPDEST DUP1 SWAP2 POP POP SWAP3 POP SWAP3 SWAP1 POP JUMP JUMPDEST PUSH4 0x4E487B71 PUSH1 0xE0 SHL PUSH1 0x0 MSTORE PUSH1 0x41 PUSH1 0x4 MSTORE PUSH1 0x24 PUSH1 0x0 REVERT JUMPDEST PUSH1 0x0 DUP1 PUSH8 0xFFFFFFFFFFFFFFFF DUP5 GT ISZERO PUSH2 0xC66 JUMPI PUSH2 0xC66 PUSH2 0xC35 JUMP JUMPDEST POP PUSH1 0x40 MLOAD PUSH1 0x1F NOT PUSH1 0x1F DUP6 ADD DUP2 AND PUSH1 0x3F ADD AND DUP2 ADD DUP2 DUP2 LT PUSH8 0xFFFFFFFFFFFFFFFF DUP3 GT OR ISZERO PUSH2 0xC95 JUMPI PUSH2 0xC95 PUSH2 0xC35 JUMP JUMPDEST PUSH1 0x40 MSTORE DUP4 DUP2 MSTORE SWAP1 POP DUP1 DUP3 DUP5 ADD DUP6 LT ISZERO PUSH2 0xCAD JUMPI PUSH1 0x0 DUP1 REVERT JUMPDEST DUP4 DUP4 PUSH1 0x20 DUP4 ADD CALLDATACOPY PUSH1 0x0 PUSH1 0x20 DUP6 DUP4 ADD ADD MSTORE POP SWAP4 SWAP3 POP POP POP JUMP JUMPDEST PUSH1 0x0 DUP1 PUSH1 0x0 DUP1 PUSH1 0x80 DUP6 DUP8 SUB SLT ISZERO PUSH2 0xCDB JUMPI PUSH1 0x0 DUP1 REVERT JUMPDEST PUSH2 0xCE4 DUP6 PUSH2 0xB5B JUMP JUMPDEST SWAP4 POP PUSH2 0xCF2 PUSH1 0x20 DUP7 ADD PUSH2 0xB5B JUMP JUMPDEST SWAP3 POP PUSH1 0x40 DUP6 ADD CALLDATALOAD SWAP2 POP PUSH1 0x60 DUP6 ADD CALLDATALOAD PUSH8 0xFFFFFFFFFFFFFFFF DUP2 GT ISZERO PUSH2 0xD15 JUMPI PUSH1 0x0 DUP1 REVERT JUMPDEST DUP6 ADD PUSH1 0x1F DUP2 ADD DUP8 SGT PUSH2 0xD26 JUMPI PUSH1 0x0 DUP1 REVERT JUMPDEST PUSH2 0xD35 DUP8 DUP3 CALLDATALOAD PUSH1 0x20 DUP5 ADD PUSH2 0xC4B JUMP JUMPDEST SWAP2 POP POP SWAP3 SWAP6 SWAP2 SWAP5 POP SWAP3 POP JUMP JUMPDEST PUSH1 0x0 DUP1 PUSH1 0x40 DUP4 DUP6 SUB SLT ISZERO PUSH2 0xD54 JUMPI PUSH1 0x0 DUP1 REVERT JUMPDEST PUSH2 0xD5D DUP4 PUSH2 0xB5B JUMP JUMPDEST SWAP2 POP PUSH1 0x20 DUP4 ADD CALLDATALOAD PUSH8 0xFFFFFFFFFFFFFFFF DUP2 GT ISZERO PUSH2 0xD79 JUMPI PUSH1 0x0 DUP1 REVERT JUMPDEST DUP4 ADD PUSH1 0x1F DUP2 ADD DUP6 SGT PUSH2 0xD8A JUMPI PUSH1 0x0 DUP1 REVERT JUMPDEST PUSH2 0xD99 DUP6 DUP3 CALLDATALOAD PUSH1 0x20 DUP5 ADD PUSH2 0xC4B JUMP JUMPDEST SWAP2 POP POP SWAP3 POP SWAP3 SWAP1 POP JUMP JUMPDEST PUSH1 0x0 DUP1 PUSH1 0x40 DUP4 DUP6 SUB SLT ISZERO PUSH2 0xDB6 JUMPI PUSH1 0x0 DUP1 REVERT JUMPDEST PUSH2 0xDBF DUP4 PUSH2 0xB5B JUMP JUMPDEST SWAP2 POP PUSH2 0xDCD PUSH1 0x20 DUP5 ADD PUSH2 0xB5B JUMP JUMPDEST SWAP1 POP SWAP3 POP SWAP3 SWAP1 POP JUMP JUMPDEST PUSH1 0x1 DUP2 DUP2 SHR SWAP1 DUP3 AND DUP1 PUSH2 0xDEA JUMPI PUSH1 0x7F DUP3 AND SWAP2 POP JUMPDEST PUSH1 0x20 DUP3 LT DUP2 SUB PUSH2 0xE0A JUMPI PUSH4 0x4E487B71 PUSH1 0xE0 SHL PUSH1 0x0 MSTORE PUSH1 0x22 PUSH1 0x4 MSTORE PUSH1 0x24 PUSH1 0x0 REVERT JUMPDEST POP SWAP2 SWAP1 POP JUMP JUMPDEST PUSH1 0x1F DUP3 GT ISZERO PUSH2 0x394 JUMPI DUP1 PUSH1 0x0 MSTORE PUSH1 0x20 PUSH1 0x0 KECCAK256 PUSH1 0x1F DUP5 ADD PUSH1 0x5 SHR DUP2 ADD PUSH1 0x20 DUP6 LT ISZERO PUSH2 0xE37 JUMPI POP DUP1 JUMPDEST PUSH1 0x1F DUP5 ADD PUSH1 0x5 SHR DUP3 ADD SWAP2 POP JUMPDEST DUP2 DUP2 LT ISZERO PUSH2 0xA55 JUMPI PUSH1 0x0 DUP2 SSTORE PUSH1 0x1 ADD PUSH2 0xE43 JUMP JUMPDEST DUP2 MLOAD PUSH8 0xFFFFFFFFFFFFFFFF DUP2 GT ISZERO PUSH2 0xE71 JUMPI PUSH2 0xE71 PUSH2 0xC35 JUMP JUMPDEST PUSH2 0xE85 DUP2 PUSH2 0xE7F DUP5 SLOAD PUSH2 0xDD6 JUMP JUMPDEST DUP5 PUSH2 0xE10 JUMP JUMPDEST PUSH1 0x20 PUSH1 0x1F DUP3 GT PUSH1 0x1 DUP2 EQ PUSH2 0xEB9 JUMPI PUSH1 0x0 DUP4 ISZERO PUSH2 0xEA1 JUMPI POP DUP5 DUP3 ADD MLOAD JUMPDEST PUSH1 0x0 NOT PUSH1 0x3 DUP6 SWAP1 SHL SHR NOT AND PUSH1 0x1 DUP5 SWAP1 SHL OR DUP5 SSTORE PUSH2 0xA55 JUMP JUMPDEST PUSH1 0x0 DUP5 DUP2 MSTORE PUSH1 0x20 DUP2 KECCAK256 PUSH1 0x1F NOT DUP6 AND SWAP2 JUMPDEST DUP3 DUP2 LT ISZERO PUSH2 0xEE9 JUMPI DUP8 DUP6 ADD MLOAD DUP3 SSTORE PUSH1 0x20 SWAP5 DUP6 ADD SWAP5 PUSH1 0x1 SWAP1 SWAP3 ADD SWAP2 ADD PUSH2 0xEC9 JUMP JUMPDEST POP DUP5 DUP3 LT ISZERO PUSH2 0xF07 JUMPI DUP7 DUP5 ADD MLOAD PUSH1 0x0 NOT PUSH1 0x3 DUP8 SWAP1 SHL PUSH1 0xF8 AND SHR NOT AND DUP2 SSTORE JUMPDEST POP POP POP POP PUSH1 0x1 SWAP1 DUP2 SHL ADD SWAP1 SSTORE POP JUMP JUMPDEST PUSH1 0x0 PUSH1 0x1 DUP3 ADD PUSH2 0xF36 JUMPI PUSH4 0x4E487B71 PUSH1 0xE0 SHL PUSH1 0x0 MSTORE PUSH1 0x11 PUSH1 0x4 MSTORE PUSH1 0x24 PUSH1 0x0 REVERT JUMPDEST POP PUSH1 0x1 ADD SWAP1 JUMP JUMPDEST PUSH1 0x1 PUSH1 0x1 PUSH1 0xA0 SHL SUB DUP6 AND DUP2 MSTORE PUSH1 0x1 PUSH1 0x1 PUSH1 0xA0 SHL SUB DUP5 AND PUSH1 0x20 DUP3 ADD MSTORE DUP3 PUSH1 0x40 DUP3 ADD MSTORE PUSH1 0x80 PUSH1 0x60 DUP3 ADD MSTORE PUSH1 0x0 PUSH2 0xF74 PUSH1 0x80 DUP4 ADD DUP5 PUSH2 0xAE2 JUMP JUMPDEST SWAP7 SWAP6 POP POP POP POP POP POP JUMP JUMPDEST PUSH1 0x0 PUSH1 0x20 DUP3 DUP5 SUB SLT ISZERO PUSH2 0xF90 JUMPI PUSH1 0x0 DUP1 REVERT JUMPDEST DUP2 MLOAD PUSH32 0xFFFFFFFF00000000000000000000000000000000000000000000000000000000 DUP2 AND DUP2 EQ PUSH2 0xB3B JUMPI PUSH1 0x0 DUP1 REVERT INVALID LOG2 PUSH5 0x6970667358 0x22 SLT KECCAK256 DUP12 0x4C 0xC9 SWAP1 DIV SWAP11 PUSH1 0xD9 BASEFEE DUP11 SWAP9 0xA9 BASEFEE DUP6 0xCE PUSH27 0x57ADB366C609CBBEF7C64A5407B351A264736F6C634300081C0033 "
        },
        "methodIdentifiers": {
          "approve(address,uint256)": "095ea7b3",
          "balanceOf(address)": "70a08231",
          "getApproved(uint256)": "081812fc",
          "isApprovedForAll(address,address)": "e985e9c5",
          "name()": "06fdde03",
          "ownerOf(uint256)": "6352211e",
          "safeMint(address,string)": "d204c45e",
          "safeTransferFrom(address,address,uint256)": "42842e0e",
          "safeTransferFrom(address,address,uint256,bytes)": "b88d4fde",
          "setApprovalForAll(address,bool)": "a22cb465",
          "symbol()": "95d89b41",
          "tokenURI(uint256)": "c87b56dd",
          "transferFrom(address,address,uint256)": "23b872dd"
        }
      }
    }
  }
}